{
  "_format": "hh-sol-artifact-1",
  "contractName": "PoseidonPay",
  "sourceName": "contracts/PoseidonPay.sol",
  "abi": [
    {
      "inputs": [],
      "stateMutability": "nonpayable",
      "type": "constructor"
    },
    {
      "inputs": [],
      "name": "EnforcedPause",
      "type": "error"
    },
    {
      "inputs": [],
      "name": "ExpectedPause",
      "type": "error"
    },
    {
      "inputs": [
        {
          "internalType": "address",
          "name": "owner",
          "type": "address"
        }
      ],
      "name": "OwnableInvalidOwner",
      "type": "error"
    },
    {
      "inputs": [
        {
          "internalType": "address",
          "name": "account",
          "type": "address"
        }
      ],
      "name": "OwnableUnauthorizedAccount",
      "type": "error"
    },
    {
      "inputs": [],
      "name": "ReentrancyGuardReentrantCall",
      "type": "error"
    },
    {
      "anonymous": false,
      "inputs": [
        {
          "indexed": true,
          "internalType": "address",
          "name": "previousOwner",
          "type": "address"
        },
        {
          "indexed": true,
          "internalType": "address",
          "name": "newOwner",
          "type": "address"
        }
      ],
      "name": "OwnershipTransferred",
      "type": "event"
    },
    {
      "anonymous": false,
      "inputs": [
        {
          "indexed": true,
          "internalType": "address",
          "name": "custoner",
          "type": "address"
        },
        {
          "indexed": false,
          "internalType": "uint256",
          "name": "timestamp",
          "type": "uint256"
        },
        {
          "indexed": false,
          "internalType": "uint256",
          "name": "amount",
          "type": "uint256"
        }
      ],
      "name": "Paid",
      "type": "event"
    },
    {
      "anonymous": false,
      "inputs": [
        {
          "indexed": false,
          "internalType": "address",
          "name": "account",
          "type": "address"
        }
      ],
      "name": "Paused",
      "type": "event"
    },
    {
      "anonymous": false,
      "inputs": [
        {
          "indexed": false,
          "internalType": "address",
          "name": "account",
          "type": "address"
        }
      ],
      "name": "Unpaused",
      "type": "event"
    },
    {
      "inputs": [],
      "name": "acceptedToken",
      "outputs": [
        {
          "internalType": "contract IERC20",
          "name": "",
          "type": "address"
        }
      ],
      "stateMutability": "view",
      "type": "function"
    },
    {
      "inputs": [
        {
          "internalType": "uint256",
          "name": "",
          "type": "uint256"
        }
      ],
      "name": "customers",
      "outputs": [
        {
          "internalType": "address",
          "name": "",
          "type": "address"
        }
      ],
      "stateMutability": "view",
      "type": "function"
    },
    {
      "inputs": [],
      "name": "getCustomers",
      "outputs": [
        {
          "internalType": "address[]",
          "name": "",
          "type": "address[]"
        }
      ],
      "stateMutability": "view",
      "type": "function"
    },
    {
      "inputs": [],
      "name": "monthlyAmount",
      "outputs": [
        {
          "internalType": "uint256",
          "name": "",
          "type": "uint256"
        }
      ],
      "stateMutability": "view",
      "type": "function"
    },
    {
      "inputs": [],
      "name": "owner",
      "outputs": [
        {
          "internalType": "address",
          "name": "",
          "type": "address"
        }
      ],
      "stateMutability": "view",
      "type": "function"
    },
    {
      "inputs": [],
      "name": "pause",
      "outputs": [],
      "stateMutability": "nonpayable",
      "type": "function"
    },
    {
      "inputs": [],
      "name": "paused",
      "outputs": [
        {
          "internalType": "bool",
          "name": "",
          "type": "bool"
        }
      ],
      "stateMutability": "view",
      "type": "function"
    },
    {
      "inputs": [
        {
          "internalType": "address",
          "name": "customer",
          "type": "address"
        }
      ],
      "name": "pay",
      "outputs": [],
      "stateMutability": "nonpayable",
      "type": "function"
    },
    {
      "inputs": [
        {
          "internalType": "address",
          "name": "",
          "type": "address"
        }
      ],
      "name": "payments",
      "outputs": [
        {
          "internalType": "uint256",
          "name": "",
          "type": "uint256"
        }
      ],
      "stateMutability": "view",
      "type": "function"
    },
    {
      "inputs": [],
      "name": "renounceOwnership",
      "outputs": [],
      "stateMutability": "nonpayable",
      "type": "function"
    },
    {
      "inputs": [
        {
          "internalType": "address",
          "name": "tokenAddress",
          "type": "address"
        }
      ],
      "name": "setAcceptedToken",
      "outputs": [],
      "stateMutability": "nonpayable",
      "type": "function"
    },
    {
      "inputs": [
        {
          "internalType": "uint256",
          "name": "newAmount",
          "type": "uint256"
        }
      ],
      "name": "setMonthlyAmount",
      "outputs": [],
      "stateMutability": "nonpayable",
      "type": "function"
    },
    {
      "inputs": [
        {
          "internalType": "address",
          "name": "newOwner",
          "type": "address"
        }
      ],
      "name": "transferOwnership",
      "outputs": [],
      "stateMutability": "nonpayable",
      "type": "function"
    },
    {
      "inputs": [],
      "name": "unpause",
      "outputs": [],
      "stateMutability": "nonpayable",
      "type": "function"
    },
    {
      "inputs": [
        {
          "internalType": "uint256",
          "name": "amount",
          "type": "uint256"
        }
      ],
      "name": "withdraw",
      "outputs": [],
      "stateMutability": "nonpayable",
      "type": "function"
    }
  ],
  "bytecode": "0x608060405266038d7ea4c680006003553480156200001c57600080fd5b5033600073ffffffffffffffffffffffffffffffffffffffff168173ffffffffffffffffffffffffffffffffffffffff1603620000935760006040517f1e4fbdf70000000000000000000000000000000000000000000000000000000081526004016200008a91906200022a565b60405180910390fd5b620000a4816200012160201b60201c565b5060008060146101000a81548160ff02191690831515021790555060018081905550737b79995e5f793a07bc00c21412e50ecae098e7f9600260006101000a81548173ffffffffffffffffffffffffffffffffffffffff021916908373ffffffffffffffffffffffffffffffffffffffff16021790555062000247565b60008060009054906101000a900473ffffffffffffffffffffffffffffffffffffffff169050816000806101000a81548173ffffffffffffffffffffffffffffffffffffffff021916908373ffffffffffffffffffffffffffffffffffffffff1602179055508173ffffffffffffffffffffffffffffffffffffffff168173ffffffffffffffffffffffffffffffffffffffff167f8be0079c531659141344cd1fd0a4f28419497f9722a3daafe3b4186f6b6457e060405160405180910390a35050565b600073ffffffffffffffffffffffffffffffffffffffff82169050919050565b60006200021282620001e5565b9050919050565b620002248162000205565b82525050565b600060208201905062000241600083018462000219565b92915050565b61136d80620002576000396000f3fe608060405234801561001057600080fd5b50600436106100f55760003560e01c80637487f52811610097578063c0abda2a11610066578063c0abda2a14610200578063e2982c2114610230578063f1ba712714610260578063f2fde38b1461027e576100f5565b80637487f528146101a05780638456cb59146101bc5780638da5cb5b146101c657806393902287146101e4576100f5565b8063451c3d80116100d3578063451c3d801461013c5780635c975abb1461015a5780636588439c14610178578063715018a614610196576100f5565b80630c11dedd146100fa5780632e1a7d4d146101165780633f4ba83a14610132575b600080fd5b610114600480360381019061010f9190610e04565b61029a565b005b610130600480360381019061012b9190610e67565b6106b6565b005b61013a61084d565b005b61014461085f565b6040516101519190610ef3565b60405180910390f35b610162610885565b60405161016f9190610f29565b60405180910390f35b61018061089b565b60405161018d9190610f53565b60405180910390f35b61019e6108a1565b005b6101ba60048036038101906101b59190610e04565b6108b5565b005b6101c4610901565b005b6101ce610913565b6040516101db9190610f7d565b60405180910390f35b6101fe60048036038101906101f99190610e67565b61093c565b005b61021a60048036038101906102159190610e67565b61094e565b6040516102279190610f7d565b60405180910390f35b61024a60048036038101906102459190610e04565b61098d565b6040516102579190610f53565b60405180910390f35b6102686109a5565b6040516102759190611056565b60405180910390f35b61029860048036038101906102939190610e04565b610a33565b005b6102a2610ab9565b6102aa610b40565b6102b2610b86565b600042600460008473ffffffffffffffffffffffffffffffffffffffff1673ffffffffffffffffffffffffffffffffffffffff1681526020019081526020016000205411159050600080600460008573ffffffffffffffffffffffffffffffffffffffff1673ffffffffffffffffffffffffffffffffffffffff168152602001908152602001600020541490506000600354600260009054906101000a900473ffffffffffffffffffffffffffffffffffffffff1673ffffffffffffffffffffffffffffffffffffffff166370a08231866040518263ffffffff1660e01b815260040161039f9190610f7d565b602060405180830381865afa1580156103bc573d6000803e3d6000fd5b505050506040513d601f19601f820116820180604052508101906103e0919061108d565b101590506000600354600260009054906101000a900473ffffffffffffffffffffffffffffffffffffffff1673ffffffffffffffffffffffffffffffffffffffff1663dd62ed3e87306040518363ffffffff1660e01b81526004016104469291906110ba565b602060405180830381865afa158015610463573d6000803e3d6000fd5b505050506040513d601f19601f82011682018060405250810190610487919061108d565b10159050600084806104965750835b9050806104a75750505050506106ab565b8215806104b2575081155b156104f2576040517f08c379a00000000000000000000000000000000000000000000000000000000081526004016104e990611166565b60405180910390fd5b600260009054906101000a900473ffffffffffffffffffffffffffffffffffffffff1673ffffffffffffffffffffffffffffffffffffffff166323b872dd87306003546040518463ffffffff1660e01b815260040161055393929190611186565b6020604051808303816000875af1158015610572573d6000803e3d6000fd5b505050506040513d601f19601f8201168201806040525081019061059691906111e9565b508315610601576005869080600181540180825580915050600190039060005260206000200160009091909190916101000a81548173ffffffffffffffffffffffffffffffffffffffff021916908373ffffffffffffffffffffffffffffffffffffffff1602179055505b62278d00426106109190611245565b600460008873ffffffffffffffffffffffffffffffffffffffff1673ffffffffffffffffffffffffffffffffffffffff168152602001908152602001600020819055508573ffffffffffffffffffffffffffffffffffffffff167fdf9a51129930649214df58f542322c245372c6f2fa6fc3c9b40d927c597cd2304260035460405161069d929190611279565b60405180910390a250505050505b6106b3610bc7565b50565b6106be610ab9565b6000600260009054906101000a900473ffffffffffffffffffffffffffffffffffffffff1673ffffffffffffffffffffffffffffffffffffffff166370a08231306040518263ffffffff1660e01b815260040161071b9190610f7d565b602060405180830381865afa158015610738573d6000803e3d6000fd5b505050506040513d601f19601f8201168201806040525081019061075c919061108d565b9050818110156107a1576040517f08c379a0000000000000000000000000000000000000000000000000000000008152600401610798906112ee565b60405180910390fd5b600260009054906101000a900473ffffffffffffffffffffffffffffffffffffffff1673ffffffffffffffffffffffffffffffffffffffff1663a9059cbb6107e7610913565b846040518363ffffffff1660e01b815260040161080592919061130e565b6020604051808303816000875af1158015610824573d6000803e3d6000fd5b505050506040513d601f19601f8201168201806040525081019061084891906111e9565b505050565b610855610ab9565b61085d610bd0565b565b600260009054906101000a900473ffffffffffffffffffffffffffffffffffffffff1681565b60008060149054906101000a900460ff16905090565b60035481565b6108a9610ab9565b6108b36000610c32565b565b6108bd610ab9565b80600260006101000a81548173ffffffffffffffffffffffffffffffffffffffff021916908373ffffffffffffffffffffffffffffffffffffffff16021790555050565b610909610ab9565b610911610cf6565b565b60008060009054906101000a900473ffffffffffffffffffffffffffffffffffffffff16905090565b610944610ab9565b8060038190555050565b6005818154811061095e57600080fd5b906000526020600020016000915054906101000a900473ffffffffffffffffffffffffffffffffffffffff1681565b60046020528060005260406000206000915090505481565b60606005805480602002602001604051908101604052809291908181526020018280548015610a2957602002820191906000526020600020905b8160009054906101000a900473ffffffffffffffffffffffffffffffffffffffff1673ffffffffffffffffffffffffffffffffffffffff16815260200190600101908083116109df575b5050505050905090565b610a3b610ab9565b600073ffffffffffffffffffffffffffffffffffffffff168173ffffffffffffffffffffffffffffffffffffffff1603610aad5760006040517f1e4fbdf7000000000000000000000000000000000000000000000000000000008152600401610aa49190610f7d565b60405180910390fd5b610ab681610c32565b50565b610ac1610d59565b73ffffffffffffffffffffffffffffffffffffffff16610adf610913565b73ffffffffffffffffffffffffffffffffffffffff1614610b3e57610b02610d59565b6040517f118cdaa7000000000000000000000000000000000000000000000000000000008152600401610b359190610f7d565b60405180910390fd5b565b600260015403610b7c576040517f3ee5aeb500000000000000000000000000000000000000000000000000000000815260040160405180910390fd5b6002600181905550565b610b8e610885565b15610bc5576040517fd93c066500000000000000000000000000000000000000000000000000000000815260040160405180910390fd5b565b60018081905550565b610bd8610d61565b60008060146101000a81548160ff0219169083151502179055507f5db9ee0a495bf2e6ff9c91a7834c1ba4fdd244a5e8aa4e537bd38aeae4b073aa610c1b610d59565b604051610c289190610f7d565b60405180910390a1565b60008060009054906101000a900473ffffffffffffffffffffffffffffffffffffffff169050816000806101000a81548173ffffffffffffffffffffffffffffffffffffffff021916908373ffffffffffffffffffffffffffffffffffffffff1602179055508173ffffffffffffffffffffffffffffffffffffffff168173ffffffffffffffffffffffffffffffffffffffff167f8be0079c531659141344cd1fd0a4f28419497f9722a3daafe3b4186f6b6457e060405160405180910390a35050565b610cfe610b86565b6001600060146101000a81548160ff0219169083151502179055507f62e78cea01bee320cd4e420270b5ea74000d11b0c9f74754ebdbfc544b05a258610d42610d59565b604051610d4f9190610f7d565b60405180910390a1565b600033905090565b610d69610885565b610d9f576040517f8dfc202b00000000000000000000000000000000000000000000000000000000815260040160405180910390fd5b565b600080fd5b600073ffffffffffffffffffffffffffffffffffffffff82169050919050565b6000610dd182610da6565b9050919050565b610de181610dc6565b8114610dec57600080fd5b50565b600081359050610dfe81610dd8565b92915050565b600060208284031215610e1a57610e19610da1565b5b6000610e2884828501610def565b91505092915050565b6000819050919050565b610e4481610e31565b8114610e4f57600080fd5b50565b600081359050610e6181610e3b565b92915050565b600060208284031215610e7d57610e7c610da1565b5b6000610e8b84828501610e52565b91505092915050565b6000819050919050565b6000610eb9610eb4610eaf84610da6565b610e94565b610da6565b9050919050565b6000610ecb82610e9e565b9050919050565b6000610edd82610ec0565b9050919050565b610eed81610ed2565b82525050565b6000602082019050610f086000830184610ee4565b92915050565b60008115159050919050565b610f2381610f0e565b82525050565b6000602082019050610f3e6000830184610f1a565b92915050565b610f4d81610e31565b82525050565b6000602082019050610f686000830184610f44565b92915050565b610f7781610dc6565b82525050565b6000602082019050610f926000830184610f6e565b92915050565b600081519050919050565b600082825260208201905092915050565b6000819050602082019050919050565b610fcd81610dc6565b82525050565b6000610fdf8383610fc4565b60208301905092915050565b6000602082019050919050565b600061100382610f98565b61100d8185610fa3565b935061101883610fb4565b8060005b838110156110495781516110308882610fd3565b975061103b83610feb565b92505060018101905061101c565b5085935050505092915050565b600060208201905081810360008301526110708184610ff8565b905092915050565b60008151905061108781610e3b565b92915050565b6000602082840312156110a3576110a2610da1565b5b60006110b184828501611078565b91505092915050565b60006040820190506110cf6000830185610f6e565b6110dc6020830184610f6e565b9392505050565b600082825260208201905092915050565b7f496e73756666696369656e742062616c616e636520616e642f6f7220616c6c6f60008201527f77616e6365000000000000000000000000000000000000000000000000000000602082015250565b60006111506025836110e3565b915061115b826110f4565b604082019050919050565b6000602082019050818103600083015261117f81611143565b9050919050565b600060608201905061119b6000830186610f6e565b6111a86020830185610f6e565b6111b56040830184610f44565b949350505050565b6111c681610f0e565b81146111d157600080fd5b50565b6000815190506111e3816111bd565b92915050565b6000602082840312156111ff576111fe610da1565b5b600061120d848285016111d4565b91505092915050565b7f4e487b7100000000000000000000000000000000000000000000000000000000600052601160045260246000fd5b600061125082610e31565b915061125b83610e31565b925082820190508082111561127357611272611216565b5b92915050565b600060408201905061128e6000830185610f44565b61129b6020830184610f44565b9392505050565b7f496e73756666696369656e742062616c616e6365000000000000000000000000600082015250565b60006112d86014836110e3565b91506112e3826112a2565b602082019050919050565b60006020820190508181036000830152611307816112cb565b9050919050565b60006040820190506113236000830185610f6e565b6113306020830184610f44565b939250505056fea2646970667358221220c6620a6c57b5c1b4c75ef00af0e950b5244d55575324eaa8d25c086ac2d5fdf764736f6c63430008180033",
  "linkReferences": {},
  "deployedLinkReferences": {}
}